{
  "contractName": "MyContract",
  "abi": [
    {
      "anonymous": false,
      "inputs": [
        {
          "indexed": false,
          "name": "_addr",
          "type": "address"
        },
        {
          "indexed": false,
          "name": "newEmail",
          "type": "string"
        }
      ],
      "name": "userRegisted",
      "type": "event"
    },
    {
      "constant": false,
      "inputs": [
        {
          "name": "id",
          "type": "uint256",
          "indexed": false
        },
        {
          "name": "_email",
          "type": "string"
        }
      ],
      "name": "productRegistered",
      "outputs": [],
      "payable": false,
      "stateMutability": "nonpayable",
      "type": "event",
      "anonymous": false
    },
    {
      "constant": false,
      "inputs": [
        {
          "name": "_addr",
          "type": "address"
        },
        {
          "name": "_email",
          "type": "string"
        }
      ],
      "name": "setUser",
      "outputs": [
        {
          "name": "",
          "type": "string"
        }
      ],
      "payable": false,
      "stateMutability": "nonpayable",
      "type": "function"
    },
    {
      "constant": true,
      "inputs": [
        {
          "name": "_addr",
          "type": "address"
        },
        {
          "name": "_price",
          "type": "uint256"
        }
      ],
      "name": "getUser",
      "outputs": [
        {
          "name": "",
          "type": "string"
        }
      ],
      "payable": false,
      "stateMutability": "view",
      "type": "function"
    },
    {
      "constant": false,
      "inputs": [
        {
          "name": "_desc",
          "type": "string"
        },
        {
          "name": "_price",
          "type": "uint256"
        }
      ],
      "name": "addProduct",
      "outputs": [
        {
          "name": "",
          "type": "uint256"
        },
        {
          "name": "",
          "type": "string"
        },
        {
          "name": "",
          "type": "address"
        },
        {
          "name": "",
          "type": "uint256"
        }
      ],
      "payable": false,
      "stateMutability": "nonpayable",
      "type": "function"
    },
    {
      "constant": true,
      "inputs": [
        {
          "name": "_id",
          "type": "uint256"
        }
      ],
      "name": "productInfo",
      "outputs": [
        {
          "name": "",
          "type": "uint256"
        },
        {
          "name": "",
          "type": "string"
        },
        {
          "name": "",
          "type": "address"
        },
        {
          "name": "",
          "type": "uint256"
        }
      ],
      "payable": false,
      "stateMutability": "view",
      "type": "function"
    },
    {
      "constant": true,
      "inputs": [
        {
          "name": "_owner",
          "type": "address"
        }
      ],
      "name": "getProducts",
      "outputs": [
        {
          "name": "",
          "type": "uint256[]"
        },
        {
          "name": "",
          "type": "string[]"
        },
        {
          "name": "",
          "type": "address[]"
        },
        {
          "name": "",
          "type": "uint256[]"
        }
      ],
      "payable": false,
      "stateMutability": "view",
      "type": "function"
    }
  ],
  "bytecode": "0x6080604052600060025534801561001557600080fd5b5061132a806100256000396000f3fe60806040526004361061006d576000357c0100000000000000000000000000000000000000000000000000000000900463ffffffff1680631691473c146100725780633f1a51b8146100b25780636f77926b146100db578063b15247d914610118578063bb119f6e14610155575b600080fd5b34801561007e57600080fd5b5061009960048036036100949190810190610c6b565b610195565b6040516100a9949392919061101d565b60405180910390f35b3480156100be57600080fd5b506100d960048036036100d49190810190610c94565b6104ea565b005b3480156100e757600080fd5b5061010260048036036100fd9190810190610c6b565b610582565b60405161010f919061107e565b60405180910390f35b34801561012457600080fd5b5061013f600480360361013a9190810190610ce8565b610688565b60405161014c9190611100565b60405180910390f35b34801561016157600080fd5b5061017c60048036036101779190810190610d3c565b61089b565b60405161018c949392919061111b565b60405180910390f35b6060806060806060600160008773ffffffffffffffffffffffffffffffffffffffff1673ffffffffffffffffffffffffffffffffffffffff1681526020019081526020016000208054905060405190808252806020026020018201604052801561020e5781602001602082028038833980820191505090505b5090506060600160008873ffffffffffffffffffffffffffffffffffffffff1673ffffffffffffffffffffffffffffffffffffffff1681526020019081526020016000208054905060405190808252806020026020018201604052801561028957816020015b60608152602001906001900390816102745790505b5090506060600160008973ffffffffffffffffffffffffffffffffffffffff1673ffffffffffffffffffffffffffffffffffffffff168152602001908152602001600020805490506040519080825280602002602001820160405280156102ff5781602001602082028038833980820191505090505b5090506060600160008a73ffffffffffffffffffffffffffffffffffffffff1673ffffffffffffffffffffffffffffffffffffffff168152602001908152602001600020805490506040519080825280602002602001820160405280156103755781602001602082028038833980820191505090505b50905060008090505b600160008b73ffffffffffffffffffffffffffffffffffffffff1673ffffffffffffffffffffffffffffffffffffffff168152602001908152602001600020805490508110156104d257610427600160008c73ffffffffffffffffffffffffffffffffffffffff1673ffffffffffffffffffffffffffffffffffffffff1681526020019081526020016000208281548110151561041757fe5b906000526020600020015461089b565b829250888581518110151561043857fe5b906020019060200201888681518110151561044f57fe5b906020019060200201888781518110151561046657fe5b906020019060200201888881518110151561047d57fe5b906020019060200201848152508473ffffffffffffffffffffffffffffffffffffffff1673ffffffffffffffffffffffffffffffffffffffff168152508490528481525050505050808060010191505061037e565b50838383839750975097509750505050509193509193565b6000600360008473ffffffffffffffffffffffffffffffffffffffff1673ffffffffffffffffffffffffffffffffffffffff168152602001908152602001600020905081816000019080519060200190610545929190610a75565b507fac6ec2f3cde22b84535f0bb70aa5a3d4e365af8847b387e4598b86913b19bab5836040516105759190610fef565b60405180910390a1505050565b606061058c610af5565b600360008473ffffffffffffffffffffffffffffffffffffffff1673ffffffffffffffffffffffffffffffffffffffff16815260200190815260200160002060206040519081016040529081600082018054600181600116156101000203166002900480601f0160208091040260200160405190810160405280929190818152602001828054600181600116156101000203166002900480156106705780601f1061064557610100808354040283529160200191610670565b820191906000526020600020905b81548152906001019060200180831161065357829003601f168201915b50505050508152505090508060000151915050919050565b600060018351101515156106d1576040517f08c379a00000000000000000000000000000000000000000000000000000000081526004016106c8906110e0565b60405180910390fd5b600082111515610716576040517f08c379a000000000000000000000000000000000000000000000000000000000815260040161070d906110c0565b60405180910390fd5b60026000815480929190600101919050555060806040519081016040528060025481526020018481526020018381526020013373ffffffffffffffffffffffffffffffffffffffff16815250600080600254815260200190815260200160002060008201518160000155602082015181600101908051906020019061079c929190610b09565b506040820151816002015560608201518160030160006101000a81548173ffffffffffffffffffffffffffffffffffffffff021916908373ffffffffffffffffffffffffffffffffffffffff160217905550905050600160003373ffffffffffffffffffffffffffffffffffffffff1673ffffffffffffffffffffffffffffffffffffffff16815260200190815260200160002060025490806001815401808255809150509060018203906000526020600020016000909192909190915055507fa0ecd9c452dc8233eea5ff75c2be4760d1cd2ff3edd236618fbe6403dc07c48a60025460405161088d9190611100565b60405180910390a192915050565b6000606060008060025485111515156108e9576040517f08c379a00000000000000000000000000000000000000000000000000000000081526004016108e0906110a0565b60405180910390fd5b6108f1610b89565b6000808781526020019081526020016000206080604051908101604052908160008201548152602001600182018054600181600116156101000203166002900480601f0160208091040260200160405190810160405280929190818152602001828054600181600116156101000203166002900480156109b25780601f10610987576101008083540402835291602001916109b2565b820191906000526020600020905b81548152906001019060200180831161099557829003601f168201915b50505050508152602001600282015481526020016003820160009054906101000a900473ffffffffffffffffffffffffffffffffffffffff1673ffffffffffffffffffffffffffffffffffffffff1673ffffffffffffffffffffffffffffffffffffffff168152505090508060000151816020015160008089815260200190815260200160002060030160009054906101000a900473ffffffffffffffffffffffffffffffffffffffff1683604001518292509450945094509450509193509193565b828054600181600116156101000203166002900490600052602060002090601f016020900481019282601f10610ab657805160ff1916838001178555610ae4565b82800160010185558215610ae4579182015b82811115610ae3578251825591602001919060010190610ac8565b5b509050610af19190610bc8565b5090565b602060405190810160405280606081525090565b828054600181600116156101000203166002900490600052602060002090601f016020900481019282601f10610b4a57805160ff1916838001178555610b78565b82800160010185558215610b78579182015b82811115610b77578251825591602001919060010190610b5c565b5b509050610b859190610bc8565b5090565b608060405190810160405280600081526020016060815260200160008152602001600073ffffffffffffffffffffffffffffffffffffffff1681525090565b610bea91905b80821115610be6576000816000905550600101610bce565b5090565b90565b6000610bf98235611281565b905092915050565b600082601f8301121515610c1457600080fd5b8135610c27610c2282611194565b611167565b91508082526020830160208301858383011115610c4357600080fd5b610c4e83828461129d565b50505092915050565b6000610c638235611293565b905092915050565b600060208284031215610c7d57600080fd5b6000610c8b84828501610bed565b91505092915050565b60008060408385031215610ca757600080fd5b6000610cb585828601610bed565b925050602083013567ffffffffffffffff811115610cd257600080fd5b610cde85828601610c01565b9150509250929050565b60008060408385031215610cfb57600080fd5b600083013567ffffffffffffffff811115610d1557600080fd5b610d2185828601610c01565b9250506020610d3285828601610c57565b9150509250929050565b600060208284031215610d4e57600080fd5b6000610d5c84828501610c57565b91505092915050565b610d6e81611245565b82525050565b6000610d7f826111e7565b808452602084019350610d91836111c0565b60005b82811015610dc357610da7868351610d65565b610db08261121e565b9150602086019550600181019050610d94565b50849250505092915050565b6000610dda826111f2565b80845260208401935083602082028501610df3856111cd565b60005b84811015610e2c578383038852610e0e838351610ece565b9250610e198261122b565b9150602088019750600181019050610df6565b508196508694505050505092915050565b6000610e48826111fd565b808452602084019350610e5a836111da565b60005b82811015610e8c57610e70868351610fe0565b610e7982611238565b9150602086019550600181019050610e5d565b50849250505092915050565b6000610ea382611213565b808452610eb78160208601602086016112ac565b610ec0816112df565b602085010191505092915050565b6000610ed982611208565b808452610eed8160208601602086016112ac565b610ef6816112df565b602085010191505092915050565b6000601682527f50726f6475637420646f6573206e6f74206578697374000000000000000000006020830152604082019050919050565b6000601e82527f5072696365206d75737420626520686967686572207468616e207a65726f00006020830152604082019050919050565b6000600c82527f4e616d6520696e76616c696400000000000000000000000000000000000000006020830152604082019050919050565b6000601182527f436f6e74612072656769737472616461210000000000000000000000000000006020830152604082019050919050565b610fe981611277565b82525050565b60006040820190506110046000830184610d65565b818103602083015261101581610fa9565b905092915050565b600060808201905081810360008301526110378187610e3d565b9050818103602083015261104b8186610dcf565b9050818103604083015261105f8185610d74565b905081810360608301526110738184610e3d565b905095945050505050565b600060208201905081810360008301526110988184610e98565b905092915050565b600060208201905081810360008301526110b981610f04565b9050919050565b600060208201905081810360008301526110d981610f3b565b9050919050565b600060208201905081810360008301526110f981610f72565b9050919050565b60006020820190506111156000830184610fe0565b92915050565b60006080820190506111306000830187610fe0565b81810360208301526111428186610e98565b90506111516040830185610d65565b61115e6060830184610fe0565b95945050505050565b6000604051905081810181811067ffffffffffffffff8211171561118a57600080fd5b8060405250919050565b600067ffffffffffffffff8211156111ab57600080fd5b601f19601f8301169050602081019050919050565b6000602082019050919050565b6000602082019050919050565b6000602082019050919050565b600081519050919050565b600081519050919050565b600081519050919050565b600081519050919050565b600081519050919050565b6000602082019050919050565b6000602082019050919050565b6000602082019050919050565b600061125082611257565b9050919050565b600073ffffffffffffffffffffffffffffffffffffffff82169050919050565b6000819050919050565b600061128c82611257565b9050919050565b6000819050919050565b82818337600083830152505050565b60005b838110156112ca5780820151818401526020810190506112af565b838111156112d9576000848401525b50505050565b6000601f19601f830116905091905056fea265627a7a72305820859e6b8ac12b07d4f3cb837f91fe41ac1874fd845cbef2c48802f2b5c426d93d6c6578706572696d656e74616cf50037",
  "source": "pragma solidity ^0.5.0;\r\npragma experimental ABIEncoderV2;\r\n\r\ncontract MyContract {\r\n\r\n    // evento para notificar o cliente\r\n    // de que a conta foi atualizada\r\n    event userRegisted(address _addr, string newEmail);\r\n    event productRegistered(uint id);\r\n\r\n    // estrutura para manter dados\r\n    // do usuário\r\n    struct User {\r\n        string email;\r\n    }\r\n\r\n    // estrutura para manter dados do produto\r\n    struct Product {\r\n        uint id;\r\n        string desc;\r\n        uint price;\r\n        address owner;\r\n    }\r\n\r\n    // mapeia um id a um produto\r\n    mapping (uint => Product) products;\r\n\r\n    // mapping para resgatar produtos de um usuário\r\n    mapping (address => uint[]) productsOfOwner;\r\n\r\n    uint256 private lastId = 0;\r\n\r\n    // mapeia endereço do usuário\r\n    // a sua estrutura\r\n    mapping (address => User) users;\r\n\r\n    // função para cadastrar\r\n    // a conta do usuário\r\n    function setUser(address _addr, string memory _email) public {\r\n        User storage user = users[_addr];\r\n        user.email = _email;\r\n\r\n        // notifica o cliente através do evento\r\n        emit userRegisted(_addr, \"Conta registrada!\");\r\n    }\r\n\r\n    // função para resgatar\r\n    // dados do usuário\r\n    function getUser(address _addr) public view returns(string memory) {\r\n        User memory user = users[_addr];\r\n        return (user.email);\r\n    }\r\n\r\n    // função para cadastrar um produto\r\n    function addProduct(string memory _desc, uint _price) public returns(uint) {\r\n        require(bytes(_desc).length >= 1, \"Name invalid\");\r\n        require(_price > 0, \"Price must be higher than zero\");\r\n\r\n        lastId++;\r\n        products[lastId] = Product(lastId, _desc, _price, msg.sender);\r\n        productsOfOwner[msg.sender].push(lastId);\r\n\r\n        emit productRegistered(lastId);\r\n    }\r\n\r\n    // função para resgatar info de um produto\r\n    function productInfo(uint _id) public view returns(uint, string memory, address, uint) {\r\n        require(_id <= lastId, \"Product does not exist\");\r\n\r\n        Product memory product = products[_id];\r\n        return (product.id, product.desc, products[_id].owner, product.price);\r\n    }\r\n\r\n    // função que retorna todos os produtos de um usuario\r\n    function getProducts(address _owner) public view returns(uint[] memory, string[] memory, address[] memory, uint[] memory) {\r\n\r\n       uint[] memory ids = new uint[](productsOfOwner[_owner].length);\r\n       string[] memory names = new string[](productsOfOwner[_owner].length);\r\n       address[] memory owners = new address[](productsOfOwner[_owner].length);\r\n       uint[] memory prices = new uint[](productsOfOwner[_owner].length);\r\n\r\n       for(uint i = 0; i < productsOfOwner[_owner].length; i++) {\r\n           (ids[i],names[i],owners[i],prices[i]) = productInfo(productsOfOwner[_owner][i]);\r\n       }\r\n\r\n       return (ids, names, owners, prices);\r\n   }\r\n\r\n}",
  "sourcePath": "D:/Documents/PoA-dapp/dapp/contracts/MyContract.sol",
  "compiler": {
    "name": "solc",
    "version": "0.5.0+commit.1d4f565a.Emscripten.clang"
  },
  "schemaVersion": "3.0.9",
  "updatedAt": "2019-05-26T23:32:50.279Z",
  "devdoc": {
    "methods": {}
  },
  "userdoc": {
    "methods": {}
  }
}