{
  "contractName": "MyContract",
  "abi": [
    {
      "anonymous": false,
      "inputs": [
        {
          "indexed": false,
          "name": "_addr",
          "type": "address"
        },
        {
          "indexed": false,
          "name": "newEmail",
          "type": "string"
        }
      ],
      "name": "userRegisted",
      "type": "event"
    },
    {
      "constant": false,
      "inputs": [
        {
          "name": "id",
          "type": "uint256",
          "indexed": false
        },
        {
          "name": "_email",
          "type": "string"
        }
      ],
      "name": "productRegistered",
      "outputs": [],
      "payable": false,
      "stateMutability": "nonpayable",
      "type": "event",
      "anonymous": false
    },
    {
      "constant": false,
      "inputs": [
        {
          "name": "",
          "type": "uint256[]",
          "indexed": false
        },
        {
          "name": "_email",
          "type": "string"
        }
      ],
      "name": "StageRegistered",
      "outputs": [
        {
          "name": "",
          "type": "string"
        }
      ],
      "payable": false,
      "stateMutability": "nonpayable",
      "type": "event",
      "anonymous": false
    },
    {
      "constant": false,
      "inputs": [
        {
          "name": "_addr",
          "type": "address"
        },
        {
          "name": "_email",
          "type": "string"
        }
      ],
      "name": "setUser",
      "outputs": [
        {
          "name": "",
          "type": "string"
        }
      ],
      "payable": false,
      "stateMutability": "nonpayable",
      "type": "function"
    },
    {
      "constant": true,
      "inputs": [
        {
          "name": "_addr",
          "type": "address"
        },
        {
          "name": "_price",
          "type": "uint256"
        }
      ],
      "name": "getUser",
      "outputs": [
        {
          "name": "",
          "type": "string"
        },
        {
          "name": "",
          "type": "string"
        },
        {
          "name": "",
          "type": "address"
        },
        {
          "name": "",
          "type": "uint256"
        }
      ],
      "payable": false,
      "stateMutability": "view",
      "type": "function"
    },
    {
      "constant": false,
      "inputs": [
        {
          "name": "_desc",
          "type": "string"
        },
        {
          "name": "_price",
          "type": "uint256"
        }
      ],
      "name": "addProduct",
      "outputs": [
        {
          "name": "",
          "type": "uint256"
        },
        {
          "name": "",
          "type": "string"
        },
        {
          "name": "",
          "type": "address"
        },
        {
          "name": "",
          "type": "uint256"
        }
      ],
      "payable": false,
      "stateMutability": "nonpayable",
      "type": "function"
    },
    {
      "constant": true,
      "inputs": [
        {
          "name": "_id",
          "type": "uint256"
        }
      ],
      "name": "productInfo",
      "outputs": [
        {
          "name": "",
          "type": "uint256"
        },
        {
          "name": "",
          "type": "string"
        },
        {
          "name": "",
          "type": "address"
        },
        {
          "name": "",
          "type": "uint256"
        }
      ],
      "payable": false,
      "stateMutability": "view",
      "type": "function"
    },
    {
      "constant": true,
      "inputs": [
        {
          "name": "_owner",
          "type": "address"
        }
      ],
      "name": "getProducts",
      "outputs": [
        {
          "name": "",
          "type": "uint256[]"
        },
        {
          "name": "",
          "type": "string[]"
        },
        {
          "name": "",
          "type": "address[]"
        },
        {
          "name": "",
          "type": "uint256[]"
        }
      ],
      "payable": false,
      "stateMutability": "view",
      "type": "function"
    },
    {
      "constant": false,
      "inputs": [
        {
          "name": "_productsIds",
          "type": "uint256[]"
        },
        {
          "name": "_stageDesc",
          "type": "string"
        }
      ],
      "name": "addToStage",
      "outputs": [],
      "payable": false,
      "stateMutability": "nonpayable",
      "type": "function"
    },
    {
      "constant": true,
      "inputs": [
        {
          "name": "_id",
          "type": "uint256"
        }
      ],
      "name": "stageInfo",
      "outputs": [
        {
          "name": "",
          "type": "uint256"
        },
        {
          "name": "",
          "type": "uint256[]"
        },
        {
          "name": "",
          "type": "string"
        },
        {
          "name": "",
          "type": "address"
        }
      ],
      "payable": false,
      "stateMutability": "view",
      "type": "function"
    },
    {
      "constant": true,
      "inputs": [
        {
          "name": "_owner",
          "type": "address"
        }
      ],
      "name": "getStages",
      "outputs": [
        {
          "name": "",
          "type": "uint256[]"
        },
        {
          "name": "",
          "type": "uint256[][]"
        },
        {
          "name": "",
          "type": "string[]"
        },
        {
          "name": "",
          "type": "address[]"
        }
      ],
      "payable": false,
      "stateMutability": "view",
      "type": "function"
    }
  ],
  "bytecode": "0x60806040526000600555600060065534801561001a57600080fd5b50611f528061002a6000396000f3fe60806040526004361061008e576000357c0100000000000000000000000000000000000000000000000000000000900463ffffffff1680631691473c14610093578063243af193146100d35780633f1a51b8146101135780636135ae001461013c5780636f77926b1461017c578063b15247d9146101b9578063bb119f6e146101f6578063e63007fb14610236575b600080fd5b34801561009f57600080fd5b506100ba60048036036100b591908101906115bf565b61025f565b6040516100ca9493929190611b60565b60405180910390f35b3480156100df57600080fd5b506100fa60048036036100f591908101906116fc565b6105b4565b60405161010a9493929190611c7e565b60405180910390f35b34801561011f57600080fd5b5061013a600480360361013591908101906115e8565b6107af565b005b34801561014857600080fd5b50610163600480360361015e91908101906115bf565b610847565b6040516101739493929190611aff565b60405180910390f35b34801561018857600080fd5b506101a3600480360361019e91908101906115bf565b610ba3565b6040516101b09190611bc1565b60405180910390f35b3480156101c557600080fd5b506101e060048036036101db91908101906116a8565b610ca9565b6040516101ed9190611c63565b60405180910390f35b34801561020257600080fd5b5061021d600480360361021891908101906116fc565b610ebc565b60405161022d9493929190611cd1565b60405180910390f35b34801561024257600080fd5b5061025d6004803603610258919081019061163c565b611096565b005b6060806060806060600160008773ffffffffffffffffffffffffffffffffffffffff1673ffffffffffffffffffffffffffffffffffffffff168152602001908152602001600020805490506040519080825280602002602001820160405280156102d85781602001602082028038833980820191505090505b5090506060600160008873ffffffffffffffffffffffffffffffffffffffff1673ffffffffffffffffffffffffffffffffffffffff1681526020019081526020016000208054905060405190808252806020026020018201604052801561035357816020015b606081526020019060019003908161033e5790505b5090506060600160008973ffffffffffffffffffffffffffffffffffffffff1673ffffffffffffffffffffffffffffffffffffffff168152602001908152602001600020805490506040519080825280602002602001820160405280156103c95781602001602082028038833980820191505090505b5090506060600160008a73ffffffffffffffffffffffffffffffffffffffff1673ffffffffffffffffffffffffffffffffffffffff1681526020019081526020016000208054905060405190808252806020026020018201604052801561043f5781602001602082028038833980820191505090505b50905060008090505b600160008b73ffffffffffffffffffffffffffffffffffffffff1673ffffffffffffffffffffffffffffffffffffffff1681526020019081526020016000208054905081101561059c576104f1600160008c73ffffffffffffffffffffffffffffffffffffffff1673ffffffffffffffffffffffffffffffffffffffff168152602001908152602001600020828154811015156104e157fe5b9060005260206000200154610ebc565b829250888581518110151561050257fe5b906020019060200201888681518110151561051957fe5b906020019060200201888781518110151561053057fe5b906020019060200201888881518110151561054757fe5b906020019060200201848152508473ffffffffffffffffffffffffffffffffffffffff1673ffffffffffffffffffffffffffffffffffffffff1681525084905284815250505050508080600101915050610448565b50838383839750975097509750505050509193509193565b600060608060006006548511151515610602576040517f08c379a00000000000000000000000000000000000000000000000000000000081526004016105f990611c23565b60405180910390fd5b61060a6112b8565b6002600087815260200190815260200160002060806040519081016040529081600082015481526020016001820180548060200260200160405190810160405280929190818152602001828054801561068257602002820191906000526020600020905b81548152602001906001019080831161066e575b50505050508152602001600282018054600181600116156101000203166002900480601f0160208091040260200160405190810160405280929190818152602001828054600181600116156101000203166002900480156107245780601f106106f957610100808354040283529160200191610724565b820191906000526020600020905b81548152906001019060200180831161070757829003601f168201915b505050505081526020016003820160009054906101000a900473ffffffffffffffffffffffffffffffffffffffff1673ffffffffffffffffffffffffffffffffffffffff1673ffffffffffffffffffffffffffffffffffffffff1681525050905080600001518160200151826040015183606001518292508191509450945094509450509193509193565b6000600460008473ffffffffffffffffffffffffffffffffffffffff1673ffffffffffffffffffffffffffffffffffffffff16815260200190815260200160002090508181600001908051906020019061080a9291906112f7565b507fac6ec2f3cde22b84535f0bb70aa5a3d4e365af8847b387e4598b86913b19bab58360405161083a9190611aaf565b60405180910390a1505050565b6060806060806060600360008773ffffffffffffffffffffffffffffffffffffffff1673ffffffffffffffffffffffffffffffffffffffff168152602001908152602001600020805490506040519080825280602002602001820160405280156108c05781602001602082028038833980820191505090505b5090506060600360008873ffffffffffffffffffffffffffffffffffffffff1673ffffffffffffffffffffffffffffffffffffffff1681526020019081526020016000208054905060405190808252806020026020018201604052801561093b57816020015b60608152602001906001900390816109265790505b5090506060600360008973ffffffffffffffffffffffffffffffffffffffff1673ffffffffffffffffffffffffffffffffffffffff168152602001908152602001600020805490506040519080825280602002602001820160405280156109b657816020015b60608152602001906001900390816109a15790505b5090506060600360008a73ffffffffffffffffffffffffffffffffffffffff1673ffffffffffffffffffffffffffffffffffffffff16815260200190815260200160002080549050604051908082528060200260200182016040528015610a2c5781602001602082028038833980820191505090505b50905060008090505b600360008b73ffffffffffffffffffffffffffffffffffffffff1673ffffffffffffffffffffffffffffffffffffffff16815260200190815260200160002080549050811015610b8b57610ade600360008c73ffffffffffffffffffffffffffffffffffffffff1673ffffffffffffffffffffffffffffffffffffffff16815260200190815260200160002082815481101515610ace57fe5b90600052602060002001546105b4565b8292508191508885815181101515610af257fe5b9060200190602002018886815181101515610b0957fe5b9060200190602002018887815181101515610b2057fe5b9060200190602002018888815181101515610b3757fe5b9060200190602002018473ffffffffffffffffffffffffffffffffffffffff1673ffffffffffffffffffffffffffffffffffffffff1681525084905284905284815250505050508080600101915050610a35565b50838383839750975097509750505050509193509193565b6060610bad611377565b600460008473ffffffffffffffffffffffffffffffffffffffff1673ffffffffffffffffffffffffffffffffffffffff16815260200190815260200160002060206040519081016040529081600082018054600181600116156101000203166002900480601f016020809104026020016040519081016040528092919081815260200182805460018160011615610100020316600290048015610c915780601f10610c6657610100808354040283529160200191610c91565b820191906000526020600020905b815481529060010190602001808311610c7457829003601f168201915b50505050508152505090508060000151915050919050565b60006001835110151515610cf2576040517f08c379a0000000000000000000000000000000000000000000000000000000008152600401610ce990611c43565b60405180910390fd5b600082111515610d37576040517f08c379a0000000000000000000000000000000000000000000000000000000008152600401610d2e90611c03565b60405180910390fd5b60056000815480929190600101919050555060806040519081016040528060055481526020018481526020018381526020013373ffffffffffffffffffffffffffffffffffffffff168152506000806005548152602001908152602001600020600082015181600001556020820151816001019080519060200190610dbd92919061138b565b506040820151816002015560608201518160030160006101000a81548173ffffffffffffffffffffffffffffffffffffffff021916908373ffffffffffffffffffffffffffffffffffffffff160217905550905050600160003373ffffffffffffffffffffffffffffffffffffffff1673ffffffffffffffffffffffffffffffffffffffff16815260200190815260200160002060055490806001815401808255809150509060018203906000526020600020016000909192909190915055507fa0ecd9c452dc8233eea5ff75c2be4760d1cd2ff3edd236618fbe6403dc07c48a600554604051610eae9190611c63565b60405180910390a192915050565b600060606000806005548511151515610f0a576040517f08c379a0000000000000000000000000000000000000000000000000000000008152600401610f0190611be3565b60405180910390fd5b610f1261140b565b6000808781526020019081526020016000206080604051908101604052908160008201548152602001600182018054600181600116156101000203166002900480601f016020809104026020016040519081016040528092919081815260200182805460018160011615610100020316600290048015610fd35780601f10610fa857610100808354040283529160200191610fd3565b820191906000526020600020905b815481529060010190602001808311610fb657829003601f168201915b50505050508152602001600282015481526020016003820160009054906101000a900473ffffffffffffffffffffffffffffffffffffffff1673ffffffffffffffffffffffffffffffffffffffff1673ffffffffffffffffffffffffffffffffffffffff168152505090508060000151816020015160008089815260200190815260200160002060030160009054906101000a900473ffffffffffffffffffffffffffffffffffffffff1683604001518292509450945094509450509193509193565b60018151101515156110dd576040517f08c379a00000000000000000000000000000000000000000000000000000000081526004016110d490611c43565b60405180910390fd5b60008251111515611123576040517f08c379a000000000000000000000000000000000000000000000000000000000815260040161111a90611c03565b60405180910390fd5b60066000815480929190600101919050555060806040519081016040528060065481526020018381526020018281526020013373ffffffffffffffffffffffffffffffffffffffff168152506002600060065481526020019081526020016000206000820151816000015560208201518160010190805190602001906111aa92919061144a565b5060408201518160020190805190602001906111c792919061138b565b5060608201518160030160006101000a81548173ffffffffffffffffffffffffffffffffffffffff021916908373ffffffffffffffffffffffffffffffffffffffff160217905550905050600360003373ffffffffffffffffffffffffffffffffffffffff1673ffffffffffffffffffffffffffffffffffffffff16815260200190815260200160002060065490806001815401808255809150509060018203906000526020600020016000909192909190915055507f4cc60a5ec8fb5bfb3ec397505a58e8cea4d91a7e74b9e01611588ad65c20bbe2826040516112ac9190611add565b60405180910390a15050565b608060405190810160405280600081526020016060815260200160608152602001600073ffffffffffffffffffffffffffffffffffffffff1681525090565b828054600181600116156101000203166002900490600052602060002090601f016020900481019282601f1061133857805160ff1916838001178555611366565b82800160010185558215611366579182015b8281111561136557825182559160200191906001019061134a565b5b5090506113739190611497565b5090565b602060405190810160405280606081525090565b828054600181600116156101000203166002900490600052602060002090601f016020900481019282601f106113cc57805160ff19168380011785556113fa565b828001600101855582156113fa579182015b828111156113f95782518255916020019190600101906113de565b5b5090506114079190611497565b5090565b608060405190810160405280600081526020016060815260200160008152602001600073ffffffffffffffffffffffffffffffffffffffff1681525090565b828054828255906000526020600020908101928215611486579160200282015b8281111561148557825182559160200191906001019061146a565b5b5090506114939190611497565b5090565b6114b991905b808211156114b557600081600090555060010161149d565b5090565b90565b60006114c88235611ea9565b905092915050565b600082601f83011215156114e357600080fd5b81356114f66114f182611d4a565b611d1d565b9150818183526020840193506020810190508385602084028201111561151b57600080fd5b60005b8381101561154b578161153188826115ab565b84526020840193506020830192505060018101905061151e565b5050505092915050565b600082601f830112151561156857600080fd5b813561157b61157682611d72565b611d1d565b9150808252602083016020830185838301111561159757600080fd5b6115a2838284611ec5565b50505092915050565b60006115b78235611ebb565b905092915050565b6000602082840312156115d157600080fd5b60006115df848285016114bc565b91505092915050565b600080604083850312156115fb57600080fd5b6000611609858286016114bc565b925050602083013567ffffffffffffffff81111561162657600080fd5b61163285828601611555565b9150509250929050565b6000806040838503121561164f57600080fd5b600083013567ffffffffffffffff81111561166957600080fd5b611675858286016114d0565b925050602083013567ffffffffffffffff81111561169257600080fd5b61169e85828601611555565b9150509250929050565b600080604083850312156116bb57600080fd5b600083013567ffffffffffffffff8111156116d557600080fd5b6116e185828601611555565b92505060206116f2858286016115ab565b9150509250929050565b60006020828403121561170e57600080fd5b600061171c848285016115ab565b91505092915050565b61172e81611e6d565b82525050565b600061173f82611ddf565b80845260208401935061175183611d9e565b60005b8281101561178357611767868351611725565b61177082611e2c565b9150602086019550600181019050611754565b50849250505092915050565b600061179a82611dea565b808452602084019350836020820285016117b385611dab565b60005b848110156117ec5783830388526117ce8383516118c6565b92506117d982611e39565b91506020880197506001810190506117b6565b508196508694505050505092915050565b600061180882611df5565b8084526020840193508360208202850161182185611db8565b60005b8481101561185a57838303885261183c838351611957565b925061184782611e46565b9150602088019750600181019050611824565b508196508694505050505092915050565b600061187682611e0b565b80845260208401935061188883611dd2565b60005b828110156118ba5761189e868351611aa0565b6118a782611e60565b915060208601955060018101905061188b565b50849250505092915050565b60006118d182611e00565b8084526020840193506118e383611dc5565b60005b82811015611915576118f9868351611aa0565b61190282611e53565b91506020860195506001810190506118e6565b50849250505092915050565b600061192c82611e21565b808452611940816020860160208601611ed4565b61194981611f07565b602085010191505092915050565b600061196282611e16565b808452611976816020860160208601611ed4565b61197f81611f07565b602085010191505092915050565b6000601682527f50726f6475637420646f6573206e6f74206578697374000000000000000000006020830152604082019050919050565b6000601e82527f5072696365206d75737420626520686967686572207468616e207a65726f00006020830152604082019050919050565b6000601c82527f50726f6475637420737461676520646f6573206e6f74206578697374000000006020830152604082019050919050565b6000600c82527f4e616d6520696e76616c696400000000000000000000000000000000000000006020830152604082019050919050565b6000601182527f436f6e74612072656769737472616461210000000000000000000000000000006020830152604082019050919050565b611aa981611e9f565b82525050565b6000604082019050611ac46000830184611725565b8181036020830152611ad581611a69565b905092915050565b60006020820190508181036000830152611af7818461186b565b905092915050565b60006080820190508181036000830152611b19818761186b565b90508181036020830152611b2d818661178f565b90508181036040830152611b4181856117fd565b90508181036060830152611b558184611734565b905095945050505050565b60006080820190508181036000830152611b7a818761186b565b90508181036020830152611b8e81866117fd565b90508181036040830152611ba28185611734565b90508181036060830152611bb6818461186b565b905095945050505050565b60006020820190508181036000830152611bdb8184611921565b905092915050565b60006020820190508181036000830152611bfc8161198d565b9050919050565b60006020820190508181036000830152611c1c816119c4565b9050919050565b60006020820190508181036000830152611c3c816119fb565b9050919050565b60006020820190508181036000830152611c5c81611a32565b9050919050565b6000602082019050611c786000830184611aa0565b92915050565b6000608082019050611c936000830187611aa0565b8181036020830152611ca5818661186b565b90508181036040830152611cb98185611921565b9050611cc86060830184611725565b95945050505050565b6000608082019050611ce66000830187611aa0565b8181036020830152611cf88186611921565b9050611d076040830185611725565b611d146060830184611aa0565b95945050505050565b6000604051905081810181811067ffffffffffffffff82111715611d4057600080fd5b8060405250919050565b600067ffffffffffffffff821115611d6157600080fd5b602082029050602081019050919050565b600067ffffffffffffffff821115611d8957600080fd5b601f19601f8301169050602081019050919050565b6000602082019050919050565b6000602082019050919050565b6000602082019050919050565b6000602082019050919050565b6000602082019050919050565b600081519050919050565b600081519050919050565b600081519050919050565b600081519050919050565b600081519050919050565b600081519050919050565b600081519050919050565b6000602082019050919050565b6000602082019050919050565b6000602082019050919050565b6000602082019050919050565b6000602082019050919050565b6000611e7882611e7f565b9050919050565b600073ffffffffffffffffffffffffffffffffffffffff82169050919050565b6000819050919050565b6000611eb482611e7f565b9050919050565b6000819050919050565b82818337600083830152505050565b60005b83811015611ef2578082015181840152602081019050611ed7565b83811115611f01576000848401525b50505050565b6000601f19601f830116905091905056fea265627a7a72305820c7830ae00ce51062f121d3ab0baebcaaf1d6dff1f9d0934bc0772d5fb85526a16c6578706572696d656e74616cf50037",
  "source": "pragma solidity ^0.5.0;\r\npragma experimental ABIEncoderV2;\r\n\r\ncontract MyContract {\r\n\r\n    // evento para notificar o cliente que a conta foi atualizada\r\n    event userRegisted(address _addr, string newEmail);\r\n    // evento para notificar o cliente que o produto foi registrado\r\n    event productRegistered(uint id);\r\n    // evento para notificar o cliente de que a Etapa foi registrada\r\n    event StageRegistered(uint[]);\r\n\r\n    // estrutura para manter dados do usurio\r\n    struct User {\r\n        string email;\r\n    }\r\n\r\n    // estrutura para registar o estagio de um produto\r\n    struct Stage {\r\n        uint id;\r\n        uint[] products;\r\n        string desc;\r\n        address owner;\r\n    }\r\n\r\n    // estrutura para manter dados do produto\r\n    struct Product {\r\n        uint id;\r\n        string desc;\r\n        uint price;\r\n        address owner;\r\n    }\r\n\r\n    // mapeia um id a um produto\r\n    mapping (uint => Product) products;\r\n    // mapping para resgatar produtos de um usurio\r\n    mapping (address => uint[]) productsOfOwner;\r\n\r\n    // mapeia um id a uma etapa\r\n    mapping(uint => Stage) stages;\r\n    // mapping para resgatar etapas dos produtos de um usurio\r\n    mapping (address => uint[]) productsStage;\r\n\r\n    // mapeia endereo do usurio a sua estrutura\r\n    mapping (address => User) users;\r\n\r\n    // state variables\r\n    uint256 private lastId = 0;\r\n    uint256 private stagesId = 0;\r\n\r\n    // funo para cadastrar conta do usurio\r\n    function setUser(address _addr, string memory _email) public {\r\n        User storage user = users[_addr];\r\n        user.email = _email;\r\n\r\n        // notifica o cliente atravs do evento\r\n        emit userRegisted(_addr, \"Conta registrada!\");\r\n    }\r\n\r\n    // funo para resgatar dados do usurio\r\n    function getUser(address _addr) public view returns(string memory) {\r\n        User memory user = users[_addr];\r\n        return (user.email);\r\n    }\r\n\r\n    // funo para cadastrar um produto\r\n    function addProduct(string memory _desc, uint _price) public returns(uint) {\r\n        require(bytes(_desc).length >= 1, \"Name invalid\");\r\n        require(_price > 0, \"Price must be higher than zero\");\r\n\r\n        lastId++;\r\n        products[lastId] = Product(lastId, _desc, _price, msg.sender);\r\n        productsOfOwner[msg.sender].push(lastId);\r\n\r\n        emit productRegistered(lastId);\r\n    }\r\n\r\n    // funo para resgatar info de um produto\r\n    function productInfo(uint _id) public view returns(uint, string memory, address, uint) {\r\n        require(_id <= lastId, \"Product does not exist\");\r\n\r\n        Product memory product = products[_id];\r\n        return (product.id, product.desc, products[_id].owner, product.price);\r\n    }\r\n\r\n    // funo que retorna todos os produtos de um usurio\r\n    function getProducts(address _owner) public view returns(uint[] memory, string[] memory, address[] memory, uint[] memory) {\r\n\r\n       uint[] memory ids = new uint[](productsOfOwner[_owner].length);\r\n       string[] memory names = new string[](productsOfOwner[_owner].length);\r\n       address[] memory owners = new address[](productsOfOwner[_owner].length);\r\n       uint[] memory prices = new uint[](productsOfOwner[_owner].length);\r\n\r\n       for(uint i = 0; i < productsOfOwner[_owner].length; i++) {\r\n           (ids[i],names[i],owners[i],prices[i]) = productInfo(productsOfOwner[_owner][i]);\r\n       }\r\n\r\n       return (ids, names, owners, prices);\r\n    }\r\n\r\n    // funo para adicionar produtos  um estgio\r\n    function addToStage(uint[] memory _productsIds, string memory _stageDesc) public {\r\n        require(bytes(_stageDesc).length >= 1, \"Name invalid\");\r\n        require(_productsIds.length > 0, \"Price must be higher than zero\");\r\n\r\n        stagesId++;\r\n        stages[stagesId] = Stage(stagesId, _productsIds, _stageDesc, msg.sender);\r\n        productsStage[msg.sender].push(stagesId);\r\n\r\n        emit StageRegistered(_productsIds);\r\n    }\r\n\r\n    // funo para resgatar info de um estgio\r\n    function stageInfo(uint _id) public view returns (uint, uint[] memory, string memory, address) {\r\n        require(_id <= stagesId, \"Product stage does not exist\");\r\n\r\n        Stage memory stage = stages[_id];\r\n        return (stage.id, stage.products, stage.desc, stage.owner);\r\n    }\r\n\r\n    // funo que retorna todos os produtos de um usurio\r\n    function getStages(address _owner) public view returns (uint[] memory, uint[][] memory, string[] memory, address[] memory) {\r\n\r\n       uint[] memory ids = new uint[](productsStage[_owner].length);\r\n       uint[][] memory prods = new uint[][](productsStage[_owner].length);\r\n       string[] memory prods_desc = new string[](productsStage[_owner].length);\r\n       address[] memory owners = new address[](productsStage[_owner].length);\r\n\r\n       for(uint i = 0; i < productsStage[_owner].length; i++) {\r\n           (ids[i],prods[i],prods_desc[i],owners[i]) = stageInfo(productsStage[_owner][i]);\r\n       }\r\n\r\n       return (ids, prods, prods_desc, owners);\r\n    }\r\n\r\n}",
  "sourcePath": "C:/Users/lucas.vieira/Documents/PoA-dapp/dapp/contracts/MyContract.sol",
  "compiler": {
    "name": "solc",
    "version": "0.5.0+commit.1d4f565a.Emscripten.clang"
  },
  "schemaVersion": "3.0.9",
  "updatedAt": "2019-05-29T16:47:35.792Z",
  "devdoc": {
    "methods": {}
  },
  "userdoc": {
    "methods": {}
  }
}